{
  "contracts/HyksosCyberkongz.sol": {
    "HyksosCyberkongz": {
      "abi": [
        {
          "inputs": [
            {
              "internalType": "address",
              "name": "_bananas",
              "type": "address"
            },
            {
              "internalType": "address",
              "name": "_kongz",
              "type": "address"
            }
          ],
          "stateMutability": "nonpayable",
          "type": "constructor"
        },
        {
          "anonymous": false,
          "inputs": [
            {
              "indexed": true,
              "internalType": "address",
              "name": "addr",
              "type": "address"
            },
            {
              "indexed": false,
              "internalType": "uint256",
              "name": "value",
              "type": "uint256"
            }
          ],
          "name": "Erc20Deposit",
          "type": "event"
        },
        {
          "anonymous": false,
          "inputs": [
            {
              "indexed": true,
              "internalType": "address",
              "name": "addr",
              "type": "address"
            },
            {
              "indexed": false,
              "internalType": "uint256",
              "name": "value",
              "type": "uint256"
            }
          ],
          "name": "Erc20Withdrawal",
          "type": "event"
        },
        {
          "anonymous": false,
          "inputs": [
            {
              "indexed": true,
              "internalType": "address",
              "name": "addr",
              "type": "address"
            },
            {
              "indexed": false,
              "internalType": "uint256",
              "name": "id",
              "type": "uint256"
            }
          ],
          "name": "NftDeposit",
          "type": "event"
        },
        {
          "anonymous": false,
          "inputs": [
            {
              "indexed": true,
              "internalType": "address",
              "name": "addr",
              "type": "address"
            },
            {
              "indexed": false,
              "internalType": "uint256",
              "name": "id",
              "type": "uint256"
            }
          ],
          "name": "NftWithdrawal",
          "type": "event"
        },
        {
          "inputs": [
            {
              "internalType": "address",
              "name": "_addr",
              "type": "address"
            }
          ],
          "name": "autoCompoundStrategy",
          "outputs": [
            {
              "internalType": "bool",
              "name": "",
              "type": "bool"
            }
          ],
          "stateMutability": "view",
          "type": "function"
        },
        {
          "inputs": [
            {
              "internalType": "uint256",
              "name": "_amount",
              "type": "uint256"
            },
            {
              "internalType": "bool",
              "name": "_isAutoCompoundOn",
              "type": "bool"
            }
          ],
          "name": "depositErc20",
          "outputs": [],
          "stateMutability": "nonpayable",
          "type": "function"
        },
        {
          "inputs": [
            {
              "internalType": "uint256",
              "name": "_id",
              "type": "uint256"
            }
          ],
          "name": "depositNft",
          "outputs": [],
          "stateMutability": "nonpayable",
          "type": "function"
        },
        {
          "inputs": [
            {
              "internalType": "uint256",
              "name": "_id",
              "type": "uint256"
            }
          ],
          "name": "depositedNft",
          "outputs": [
            {
              "components": [
                {
                  "internalType": "uint256",
                  "name": "timeDeposited",
                  "type": "uint256"
                },
                {
                  "internalType": "address",
                  "name": "owner",
                  "type": "address"
                },
                {
                  "components": [
                    {
                      "internalType": "uint256",
                      "name": "amount",
                      "type": "uint256"
                    },
                    {
                      "internalType": "address",
                      "name": "sender",
                      "type": "address"
                    }
                  ],
                  "internalType": "struct DepositQueue.Deposit[]",
                  "name": "shareholders",
                  "type": "tuple[]"
                }
              ],
              "internalType": "struct HyksosCyberkongz.DepositedNft",
              "name": "",
              "type": "tuple"
            }
          ],
          "stateMutability": "view",
          "type": "function"
        },
        {
          "inputs": [
            {
              "internalType": "address",
              "name": "_addr",
              "type": "address"
            }
          ],
          "name": "erc20Balance",
          "outputs": [
            {
              "internalType": "uint256",
              "name": "",
              "type": "uint256"
            }
          ],
          "stateMutability": "view",
          "type": "function"
        },
        {
          "inputs": [
            {
              "internalType": "uint256",
              "name": "_index",
              "type": "uint256"
            }
          ],
          "name": "getDeposit",
          "outputs": [
            {
              "components": [
                {
                  "internalType": "uint256",
                  "name": "amount",
                  "type": "uint256"
                },
                {
                  "internalType": "address",
                  "name": "sender",
                  "type": "address"
                }
              ],
              "internalType": "struct DepositQueue.Deposit",
              "name": "",
              "type": "tuple"
            }
          ],
          "stateMutability": "view",
          "type": "function"
        },
        {
          "inputs": [],
          "name": "numDeposits",
          "outputs": [
            {
              "internalType": "uint256",
              "name": "",
              "type": "uint256"
            }
          ],
          "stateMutability": "view",
          "type": "function"
        },
        {
          "inputs": [
            {
              "internalType": "bool",
              "name": "_isAutoCompoundOn",
              "type": "bool"
            }
          ],
          "name": "setAutoCompoundStrategy",
          "outputs": [],
          "stateMutability": "nonpayable",
          "type": "function"
        },
        {
          "inputs": [],
          "name": "totalErc20",
          "outputs": [
            {
              "internalType": "uint256",
              "name": "",
              "type": "uint256"
            }
          ],
          "stateMutability": "view",
          "type": "function"
        },
        {
          "inputs": [
            {
              "internalType": "uint256",
              "name": "_amount",
              "type": "uint256"
            }
          ],
          "name": "withdrawErc20",
          "outputs": [],
          "stateMutability": "nonpayable",
          "type": "function"
        },
        {
          "inputs": [
            {
              "internalType": "uint256",
              "name": "_id",
              "type": "uint256"
            }
          ],
          "name": "withdrawNft",
          "outputs": [],
          "stateMutability": "nonpayable",
          "type": "function"
        }
      ],
      "evm": {
        "bytecode": {
          "linkReferences": {},
          "object": "608060405234801561001057600080fd5b5060405161163138038061163183398101604081905261002f9161007f565b600280546001600160a01b039283166001600160a01b031991821617909155600380549390921692169190911790556100b2565b80516001600160a01b038116811461007a57600080fd5b919050565b6000806040838503121561009257600080fd5b61009b83610063565b91506100a960208401610063565b90509250929050565b611570806100c16000396000f3fe608060405234801561001057600080fd5b50600436106100a95760003560e01c80639c437e54116100715780639c437e541461014f5780639f9fb96814610162578063b478fc0714610182578063b7c3505f146101b9578063bbd4e8c9146101cc578063c0316aa3146101d457600080fd5b8063199402e5146100ae57806323ad6db2146100d7578063258ab15c1461011457806390babe8b14610129578063910efae81461013c575b600080fd5b6100c16100bc366004611318565b6101dc565b6040516100ce9190611331565b60405180910390f35b6101046100e53660046113bb565b6001600160a01b031660009081526006602052604090205460ff161590565b60405190151581526020016100ce565b610127610122366004611318565b61029d565b005b6101276101373660046113f9565b6103eb565b61012761014a366004611318565b6103f7565b61012761015d366004611416565b610602565b610175610170366004611318565b610707565b6040516100ce9190611446565b6101ab6101903660046113bb565b6001600160a01b031660009081526004602052604090205490565b6040519081526020016100ce565b6101276101c7366004611318565b6107d9565b6101ab6109a8565b6007546101ab565b60408051606080820183526000808352602080840182905283850183905285825260058152848220855193840186528054845260018101546001600160a01b031684830152600281018054875181850281018501895281815296979596929587019492939192909184015b8282101561028f5760008481526020908190206040805180820190915260028502909101805482526001908101546001600160a01b0316828401529083529092019101610247565b505050915250909392505050565b336000908152600460205260409020548111156103015760405162461bcd60e51b815260206004820152601a60248201527f5769746864726177616c20616d6f756e7420746f6f206269672e00000000000060448201526064015b60405180910390fd5b8060076000828254610313919061147c565b9091555050336000908152600460205260408120805483929061033790849061147c565b909155505060035460405163a9059cbb60e01b8152336004820152602481018390526001600160a01b039091169063a9059cbb906044016020604051808303816000875af115801561038d573d6000803e3d6000fd5b505050506040513d601f19601f820116820180604052508101906103b19190611493565b5060405181815233907f1b2ddd05b84795a2399545c07b572670916505841f3dca544522702c95c6dac3906020015b60405180910390a250565b6103f4816109bf565b50565b42610406600a620151806114b0565b60008381526005602052604090205461041f91906114cf565b106104655760405162461bcd60e51b81526020600482015260166024820152752a37b79032b0b9363c903a37903bb4ba34323930bb9760511b60448201526064016102f8565b60008181526005602052604081205461048790610482904261147c565b6109fa565b9050600260009054906101000a90046001600160a01b03166001600160a01b0316633d18b9126040518163ffffffff1660e01b8152600401600060405180830381600087803b1580156104d957600080fd5b505af11580156104ed573d6000803e3d6000fd5b505050506104fb8183610a22565b600254600083815260056020526040908190206001015490516323b872dd60e01b81523060048201526001600160a01b039182166024820152604481018590529116906323b872dd90606401600060405180830381600087803b15801561056157600080fd5b505af1158015610575573d6000803e3d6000fd5b5050506000838152600560209081526040918290206001015491518581526001600160a01b0390921692507f59994f7bed7ab9b9c914efb2b3467ee88e9a9b45afc792c3493d0b3583448154910160405180910390a260008281526005602052604081208181556001810180546001600160a01b0319169055906105fc60028301826112d1565b50505050565b33600090815260046020526040812080548492906106219084906114cf565b9091555061063190508233610ae2565b816007600082825461064391906114cf565b909155506106529050816109bf565b6003546040516323b872dd60e01b8152336004820152306024820152604481018490526001600160a01b03909116906323b872dd906064016020604051808303816000875af11580156106a9573d6000803e3d6000fd5b505050506040513d601f19601f820116820180604052508101906106cd9190611493565b5060405182815233907f41c2204e0b8b95e51b469b325b7c4f84dd02258c431b7728bb84f665475cd6ec9060200160405180910390a25050565b60408051808201909152600080825260208201526001546000541161072b57600080fd5b60005460015461073c9084906114cf565b1061077f5760405162461bcd60e51b8152602060048201526013602482015272496e646578206f7574206f6620626f756e647360681b60448201526064016102f8565b60008260015461078f91906114cf565b8154811061079f5761079f6114e7565b60009182526020918290206040805180820190915260029092020180548252600101546001600160a01b0316918101919091529050919050565b6107e4816103e91190565b6108305760405162461bcd60e51b815260206004820152601860248201527f43616e2774206465706f7369742074686973204b6f6e672e000000000000000060448201526064016102f8565b600081815260056020526040902042815560010180546001600160a01b0319163317905561085d81610b77565b6002546040516323b872dd60e01b8152336004820152306024820152604481018390526001600160a01b03909116906323b872dd90606401600060405180830381600087803b1580156108af57600080fd5b505af11580156108c3573d6000803e3d6000fd5b50506003546001600160a01b0316915063a9059cbb905033606460506108f2600a678ac7230489e800006114b0565b6108fc91906114b0565b61090691906114fd565b6040516001600160e01b031960e085901b1681526001600160a01b03909216600483015260248201526044016020604051808303816000875af1158015610951573d6000803e3d6000fd5b505050506040513d601f19601f820116820180604052508101906109759190611493565b5060405181815233907fc51aa48e8a485bd6477140a30bc33abe671d92f680dd8a75c516b926aa009d93906020016103e0565b6001546000805490916109ba9161147c565b905090565b3360009081526006602052604090205460ff16151581151514156103f457336000908152600660205260409020805460ff1916821517905550565b600062015180610a1283678ac7230489e800006114b0565b610a1c91906114fd565b92915050565b6000818152600560205260409020600101546001600160a01b0316331415610a5257610a4e8183610f0c565b5050565b60005b600082815260056020526040902060020154811015610ad7576000828152600560205260409020600201805482908110610a9157610a916114e7565b60009182526020909120600290910201600101546001600160a01b0316331415610ac557610ac0828483610fe3565b505050565b80610acf8161151f565b915050610a55565b50610a4e8183610f0c565b604080518082019091529182526001600160a01b03908116602083019081526000805460018101825590805292517f290decd9548b62a8d60345a988386fc84ba6bc95484008f6362f93160ef3e563600290940293840155517f290decd9548b62a8d60345a988386fc84ba6bc95484008f6362f93160ef3e56490920180546001600160a01b03191692909116919091179055565b60646050610b8e600a678ac7230489e800006114b0565b610b9891906114b0565b610ba291906114fd565b6007541015610bfe5760405162461bcd60e51b815260206004820152602260248201527f4e6f7420656e6f7567682062616e616e617320746f2066756e642061206c6f61604482015261371760f11b60648201526084016102f8565b60005b6001546000541115610ecd576000610c176110c9565b6020808201516001600160a01b0316600090815260049091526040902054909150610c4b57610c4461113a565b5050610c01565b80516020808301516001600160a01b031660009081526004909152604081205490911115610c9757506020808201516001600160a01b0316600090815260049091526040902054610c9b565b5080515b6000610ca782856114cf565b905060646050610cc0600a678ac7230489e800006114b0565b610cca91906114b0565b610cd491906114fd565b811115610dd95760008460646050610cf5600a678ac7230489e800006114b0565b610cff91906114b0565b610d0991906114fd565b610d13919061147c565b90506000610d21828561147c565b9050610d2c816111ac565b60008781526005602090815260408083208151808301835286815289840180516001600160a01b039081168387019081526002948501805460018082018355918a52888a2095519602909401948555519390920180546001600160a01b031916938316939093179092559051168352600490915281208054849290610db290849061147c565b925050819055508160076000828254610dcb919061147c565b909155505050505050505050565b60008581526005602090815260408083208151808301835286815287840180516001600160a01b039081168387019081526002948501805460018082018355918a52888a2095519602909401948555519390920180546001600160a01b0319169383169390931790925590511683526004909152812080549295508592849290610e6490849061147c565b925050819055508160076000828254610e7d919061147c565b90915550610e8b905061113a565b5060646050610ea3600a678ac7230489e800006114b0565b610ead91906114b0565b610eb791906114fd565b811415610ec5575050505050565b505050610c01565b60405162461bcd60e51b81526020600482015260146024820152732737ba1032b737bab3b4103232b837b9b4ba399760611b60448201526064016102f8565b60005b600083815260056020526040902060020154811015610ac0576000838152600560205260408120600201805483908110610f4b57610f4b6114e7565b600091825260208083206040805180820190915260029093020180548352600101546001600160a01b031690820152915060646050610f93600a678ac7230489e800006114b0565b610f9d91906114b0565b610fa791906114fd565b8251610fb49086906114b0565b610fbe91906114fd565b9050610fce8260200151826111e6565b50508080610fdb9061151f565b915050610f0f565b60005b6000848152600560205260409020600201548110156105fc576000848152600560205260408120600201805483908110611022576110226114e7565b600091825260208083206040805180820190915260029093020180548084526001909101546001600160a01b0316918301919091529092506050906110689060646114b0565b61107291906114fd565b9050838314156110a65761108f600a678ac7230489e800006114b0565b611099908661147c565b6110a390826114cf565b90505b6110b48260200151826111e6565b505080806110c19061151f565b915050610fe6565b6040805180820190915260008082526020820152600154600054116110ed57600080fd5b600060015481548110611102576111026114e7565b60009182526020918290206040805180820190915260029092020180548252600101546001600160a01b031691810191909152905090565b60408051808201909152600080825260208201526001546000541161115e57600080fd5b600060015481548110611173576111736114e7565b600091825260208220600290910201818155600190810180546001600160a01b03191690558054916111a48361151f565b919050555090565b600154600054116111bc57600080fd5b806000600154815481106111d2576111d26114e7565b600091825260209091206002909102015550565b6001600160a01b03821660009081526006602052604090205460ff161561127e5760035460405163a9059cbb60e01b81526001600160a01b038481166004830152602482018490529091169063a9059cbb906044016020604051808303816000875af115801561125a573d6000803e3d6000fd5b505050506040513d601f19601f82011682018060405250810190610ac09190611493565b6001600160a01b038216600090815260046020526040812080548392906112a69084906114cf565b909155506112b690508183610ae2565b80600760008282546112c891906114cf565b90915550505050565b50805460008255600202906000526020600020908101906103f491905b8082111561131457600081556001810180546001600160a01b03191690556002016112ee565b5090565b60006020828403121561132a57600080fd5b5035919050565b6020808252825182820152828101516001600160a01b0316604080840191909152808401516060808501528051608085018190526000939291830191849160a08701905b808410156113af5761139b828651805182526020908101516001600160a01b0316910152565b938501936001939093019290820190611375565b50979650505050505050565b6000602082840312156113cd57600080fd5b81356001600160a01b03811681146113e457600080fd5b9392505050565b80151581146103f457600080fd5b60006020828403121561140b57600080fd5b81356113e4816113eb565b6000806040838503121561142957600080fd5b82359150602083013561143b816113eb565b809150509250929050565b815181526020808301516001600160a01b03169082015260408101610a1c565b634e487b7160e01b600052601160045260246000fd5b60008282101561148e5761148e611466565b500390565b6000602082840312156114a557600080fd5b81516113e4816113eb565b60008160001904831182151516156114ca576114ca611466565b500290565b600082198211156114e2576114e2611466565b500190565b634e487b7160e01b600052603260045260246000fd5b60008261151a57634e487b7160e01b600052601260045260246000fd5b500490565b600060001982141561153357611533611466565b506001019056fea26469706673582212208d23c2e8a555d27b34bc43dc72aafcc462cf25f342ac2aedace1001ca6e1692364736f6c634300080b0033",
          "opcodes": "PUSH1 0x80 PUSH1 0x40 MSTORE CALLVALUE DUP1 ISZERO PUSH2 0x10 JUMPI PUSH1 0x0 DUP1 REVERT JUMPDEST POP PUSH1 0x40 MLOAD PUSH2 0x1631 CODESIZE SUB DUP1 PUSH2 0x1631 DUP4 CODECOPY DUP2 ADD PUSH1 0x40 DUP2 SWAP1 MSTORE PUSH2 0x2F SWAP2 PUSH2 0x7F JUMP JUMPDEST PUSH1 0x2 DUP1 SLOAD PUSH1 0x1 PUSH1 0x1 PUSH1 0xA0 SHL SUB SWAP3 DUP4 AND PUSH1 0x1 PUSH1 0x1 PUSH1 0xA0 SHL SUB NOT SWAP2 DUP3 AND OR SWAP1 SWAP2 SSTORE PUSH1 0x3 DUP1 SLOAD SWAP4 SWAP1 SWAP3 AND SWAP3 AND SWAP2 SWAP1 SWAP2 OR SWAP1 SSTORE PUSH2 0xB2 JUMP JUMPDEST DUP1 MLOAD PUSH1 0x1 PUSH1 0x1 PUSH1 0xA0 SHL SUB DUP2 AND DUP2 EQ PUSH2 0x7A JUMPI PUSH1 0x0 DUP1 REVERT JUMPDEST SWAP2 SWAP1 POP JUMP JUMPDEST PUSH1 0x0 DUP1 PUSH1 0x40 DUP4 DUP6 SUB SLT ISZERO PUSH2 0x92 JUMPI PUSH1 0x0 DUP1 REVERT JUMPDEST PUSH2 0x9B DUP4 PUSH2 0x63 JUMP JUMPDEST SWAP2 POP PUSH2 0xA9 PUSH1 0x20 DUP5 ADD PUSH2 0x63 JUMP JUMPDEST SWAP1 POP SWAP3 POP SWAP3 SWAP1 POP JUMP JUMPDEST PUSH2 0x1570 DUP1 PUSH2 0xC1 PUSH1 0x0 CODECOPY PUSH1 0x0 RETURN INVALID PUSH1 0x80 PUSH1 0x40 MSTORE CALLVALUE DUP1 ISZERO PUSH2 0x10 JUMPI PUSH1 0x0 DUP1 REVERT JUMPDEST POP PUSH1 0x4 CALLDATASIZE LT PUSH2 0xA9 JUMPI PUSH1 0x0 CALLDATALOAD PUSH1 0xE0 SHR DUP1 PUSH4 0x9C437E54 GT PUSH2 0x71 JUMPI DUP1 PUSH4 0x9C437E54 EQ PUSH2 0x14F JUMPI DUP1 PUSH4 0x9F9FB968 EQ PUSH2 0x162 JUMPI DUP1 PUSH4 0xB478FC07 EQ PUSH2 0x182 JUMPI DUP1 PUSH4 0xB7C3505F EQ PUSH2 0x1B9 JUMPI DUP1 PUSH4 0xBBD4E8C9 EQ PUSH2 0x1CC JUMPI DUP1 PUSH4 0xC0316AA3 EQ PUSH2 0x1D4 JUMPI PUSH1 0x0 DUP1 REVERT JUMPDEST DUP1 PUSH4 0x199402E5 EQ PUSH2 0xAE JUMPI DUP1 PUSH4 0x23AD6DB2 EQ PUSH2 0xD7 JUMPI DUP1 PUSH4 0x258AB15C EQ PUSH2 0x114 JUMPI DUP1 PUSH4 0x90BABE8B EQ PUSH2 0x129 JUMPI DUP1 PUSH4 0x910EFAE8 EQ PUSH2 0x13C JUMPI JUMPDEST PUSH1 0x0 DUP1 REVERT JUMPDEST PUSH2 0xC1 PUSH2 0xBC CALLDATASIZE PUSH1 0x4 PUSH2 0x1318 JUMP JUMPDEST PUSH2 0x1DC JUMP JUMPDEST PUSH1 0x40 MLOAD PUSH2 0xCE SWAP2 SWAP1 PUSH2 0x1331 JUMP JUMPDEST PUSH1 0x40 MLOAD DUP1 SWAP2 SUB SWAP1 RETURN JUMPDEST PUSH2 0x104 PUSH2 0xE5 CALLDATASIZE PUSH1 0x4 PUSH2 0x13BB JUMP JUMPDEST PUSH1 0x1 PUSH1 0x1 PUSH1 0xA0 SHL SUB AND PUSH1 0x0 SWAP1 DUP2 MSTORE PUSH1 0x6 PUSH1 0x20 MSTORE PUSH1 0x40 SWAP1 KECCAK256 SLOAD PUSH1 0xFF AND ISZERO SWAP1 JUMP JUMPDEST PUSH1 0x40 MLOAD SWAP1 ISZERO ISZERO DUP2 MSTORE PUSH1 0x20 ADD PUSH2 0xCE JUMP JUMPDEST PUSH2 0x127 PUSH2 0x122 CALLDATASIZE PUSH1 0x4 PUSH2 0x1318 JUMP JUMPDEST PUSH2 0x29D JUMP JUMPDEST STOP JUMPDEST PUSH2 0x127 PUSH2 0x137 CALLDATASIZE PUSH1 0x4 PUSH2 0x13F9 JUMP JUMPDEST PUSH2 0x3EB JUMP JUMPDEST PUSH2 0x127 PUSH2 0x14A CALLDATASIZE PUSH1 0x4 PUSH2 0x1318 JUMP JUMPDEST PUSH2 0x3F7 JUMP JUMPDEST PUSH2 0x127 PUSH2 0x15D CALLDATASIZE PUSH1 0x4 PUSH2 0x1416 JUMP JUMPDEST PUSH2 0x602 JUMP JUMPDEST PUSH2 0x175 PUSH2 0x170 CALLDATASIZE PUSH1 0x4 PUSH2 0x1318 JUMP JUMPDEST PUSH2 0x707 JUMP JUMPDEST PUSH1 0x40 MLOAD PUSH2 0xCE SWAP2 SWAP1 PUSH2 0x1446 JUMP JUMPDEST PUSH2 0x1AB PUSH2 0x190 CALLDATASIZE PUSH1 0x4 PUSH2 0x13BB JUMP JUMPDEST PUSH1 0x1 PUSH1 0x1 PUSH1 0xA0 SHL SUB AND PUSH1 0x0 SWAP1 DUP2 MSTORE PUSH1 0x4 PUSH1 0x20 MSTORE PUSH1 0x40 SWAP1 KECCAK256 SLOAD SWAP1 JUMP JUMPDEST PUSH1 0x40 MLOAD SWAP1 DUP2 MSTORE PUSH1 0x20 ADD PUSH2 0xCE JUMP JUMPDEST PUSH2 0x127 PUSH2 0x1C7 CALLDATASIZE PUSH1 0x4 PUSH2 0x1318 JUMP JUMPDEST PUSH2 0x7D9 JUMP JUMPDEST PUSH2 0x1AB PUSH2 0x9A8 JUMP JUMPDEST PUSH1 0x7 SLOAD PUSH2 0x1AB JUMP JUMPDEST PUSH1 0x40 DUP1 MLOAD PUSH1 0x60 DUP1 DUP3 ADD DUP4 MSTORE PUSH1 0x0 DUP1 DUP4 MSTORE PUSH1 0x20 DUP1 DUP5 ADD DUP3 SWAP1 MSTORE DUP4 DUP6 ADD DUP4 SWAP1 MSTORE DUP6 DUP3 MSTORE PUSH1 0x5 DUP2 MSTORE DUP5 DUP3 KECCAK256 DUP6 MLOAD SWAP4 DUP5 ADD DUP7 MSTORE DUP1 SLOAD DUP5 MSTORE PUSH1 0x1 DUP2 ADD SLOAD PUSH1 0x1 PUSH1 0x1 PUSH1 0xA0 SHL SUB AND DUP5 DUP4 ADD MSTORE PUSH1 0x2 DUP2 ADD DUP1 SLOAD DUP8 MLOAD DUP2 DUP6 MUL DUP2 ADD DUP6 ADD DUP10 MSTORE DUP2 DUP2 MSTORE SWAP7 SWAP8 SWAP6 SWAP7 SWAP3 SWAP6 DUP8 ADD SWAP5 SWAP3 SWAP4 SWAP2 SWAP3 SWAP1 SWAP2 DUP5 ADD JUMPDEST DUP3 DUP3 LT ISZERO PUSH2 0x28F JUMPI PUSH1 0x0 DUP5 DUP2 MSTORE PUSH1 0x20 SWAP1 DUP2 SWAP1 KECCAK256 PUSH1 0x40 DUP1 MLOAD DUP1 DUP3 ADD SWAP1 SWAP2 MSTORE PUSH1 0x2 DUP6 MUL SWAP1 SWAP2 ADD DUP1 SLOAD DUP3 MSTORE PUSH1 0x1 SWAP1 DUP2 ADD SLOAD PUSH1 0x1 PUSH1 0x1 PUSH1 0xA0 SHL SUB AND DUP3 DUP5 ADD MSTORE SWAP1 DUP4 MSTORE SWAP1 SWAP3 ADD SWAP2 ADD PUSH2 0x247 JUMP JUMPDEST POP POP POP SWAP2 MSTORE POP SWAP1 SWAP4 SWAP3 POP POP POP JUMP JUMPDEST CALLER PUSH1 0x0 SWAP1 DUP2 MSTORE PUSH1 0x4 PUSH1 0x20 MSTORE PUSH1 0x40 SWAP1 KECCAK256 SLOAD DUP2 GT ISZERO PUSH2 0x301 JUMPI PUSH1 0x40 MLOAD PUSH3 0x461BCD PUSH1 0xE5 SHL DUP2 MSTORE PUSH1 0x20 PUSH1 0x4 DUP3 ADD MSTORE PUSH1 0x1A PUSH1 0x24 DUP3 ADD MSTORE PUSH32 0x5769746864726177616C20616D6F756E7420746F6F206269672E000000000000 PUSH1 0x44 DUP3 ADD MSTORE PUSH1 0x64 ADD JUMPDEST PUSH1 0x40 MLOAD DUP1 SWAP2 SUB SWAP1 REVERT JUMPDEST DUP1 PUSH1 0x7 PUSH1 0x0 DUP3 DUP3 SLOAD PUSH2 0x313 SWAP2 SWAP1 PUSH2 0x147C JUMP JUMPDEST SWAP1 SWAP2 SSTORE POP POP CALLER PUSH1 0x0 SWAP1 DUP2 MSTORE PUSH1 0x4 PUSH1 0x20 MSTORE PUSH1 0x40 DUP2 KECCAK256 DUP1 SLOAD DUP4 SWAP3 SWAP1 PUSH2 0x337 SWAP1 DUP5 SWAP1 PUSH2 0x147C JUMP JUMPDEST SWAP1 SWAP2 SSTORE POP POP PUSH1 0x3 SLOAD PUSH1 0x40 MLOAD PUSH4 0xA9059CBB PUSH1 0xE0 SHL DUP2 MSTORE CALLER PUSH1 0x4 DUP3 ADD MSTORE PUSH1 0x24 DUP2 ADD DUP4 SWAP1 MSTORE PUSH1 0x1 PUSH1 0x1 PUSH1 0xA0 SHL SUB SWAP1 SWAP2 AND SWAP1 PUSH4 0xA9059CBB SWAP1 PUSH1 0x44 ADD PUSH1 0x20 PUSH1 0x40 MLOAD DUP1 DUP4 SUB DUP2 PUSH1 0x0 DUP8 GAS CALL ISZERO DUP1 ISZERO PUSH2 0x38D JUMPI RETURNDATASIZE PUSH1 0x0 DUP1 RETURNDATACOPY RETURNDATASIZE PUSH1 0x0 REVERT JUMPDEST POP POP POP POP PUSH1 0x40 MLOAD RETURNDATASIZE PUSH1 0x1F NOT PUSH1 0x1F DUP3 ADD AND DUP3 ADD DUP1 PUSH1 0x40 MSTORE POP DUP2 ADD SWAP1 PUSH2 0x3B1 SWAP2 SWAP1 PUSH2 0x1493 JUMP JUMPDEST POP PUSH1 0x40 MLOAD DUP2 DUP2 MSTORE CALLER SWAP1 PUSH32 0x1B2DDD05B84795A2399545C07B572670916505841F3DCA544522702C95C6DAC3 SWAP1 PUSH1 0x20 ADD JUMPDEST PUSH1 0x40 MLOAD DUP1 SWAP2 SUB SWAP1 LOG2 POP JUMP JUMPDEST PUSH2 0x3F4 DUP2 PUSH2 0x9BF JUMP JUMPDEST POP JUMP JUMPDEST TIMESTAMP PUSH2 0x406 PUSH1 0xA PUSH3 0x15180 PUSH2 0x14B0 JUMP JUMPDEST PUSH1 0x0 DUP4 DUP2 MSTORE PUSH1 0x5 PUSH1 0x20 MSTORE PUSH1 0x40 SWAP1 KECCAK256 SLOAD PUSH2 0x41F SWAP2 SWAP1 PUSH2 0x14CF JUMP JUMPDEST LT PUSH2 0x465 JUMPI PUSH1 0x40 MLOAD PUSH3 0x461BCD PUSH1 0xE5 SHL DUP2 MSTORE PUSH1 0x20 PUSH1 0x4 DUP3 ADD MSTORE PUSH1 0x16 PUSH1 0x24 DUP3 ADD MSTORE PUSH22 0x2A37B79032B0B9363C903A37903BB4BA34323930BB97 PUSH1 0x51 SHL PUSH1 0x44 DUP3 ADD MSTORE PUSH1 0x64 ADD PUSH2 0x2F8 JUMP JUMPDEST PUSH1 0x0 DUP2 DUP2 MSTORE PUSH1 0x5 PUSH1 0x20 MSTORE PUSH1 0x40 DUP2 KECCAK256 SLOAD PUSH2 0x487 SWAP1 PUSH2 0x482 SWAP1 TIMESTAMP PUSH2 0x147C JUMP JUMPDEST PUSH2 0x9FA JUMP JUMPDEST SWAP1 POP PUSH1 0x2 PUSH1 0x0 SWAP1 SLOAD SWAP1 PUSH2 0x100 EXP SWAP1 DIV PUSH1 0x1 PUSH1 0x1 PUSH1 0xA0 SHL SUB AND PUSH1 0x1 PUSH1 0x1 PUSH1 0xA0 SHL SUB AND PUSH4 0x3D18B912 PUSH1 0x40 MLOAD DUP2 PUSH4 0xFFFFFFFF AND PUSH1 0xE0 SHL DUP2 MSTORE PUSH1 0x4 ADD PUSH1 0x0 PUSH1 0x40 MLOAD DUP1 DUP4 SUB DUP2 PUSH1 0x0 DUP8 DUP1 EXTCODESIZE ISZERO DUP1 ISZERO PUSH2 0x4D9 JUMPI PUSH1 0x0 DUP1 REVERT JUMPDEST POP GAS CALL ISZERO DUP1 ISZERO PUSH2 0x4ED JUMPI RETURNDATASIZE PUSH1 0x0 DUP1 RETURNDATACOPY RETURNDATASIZE PUSH1 0x0 REVERT JUMPDEST POP POP POP POP PUSH2 0x4FB DUP2 DUP4 PUSH2 0xA22 JUMP JUMPDEST PUSH1 0x2 SLOAD PUSH1 0x0 DUP4 DUP2 MSTORE PUSH1 0x5 PUSH1 0x20 MSTORE PUSH1 0x40 SWAP1 DUP2 SWAP1 KECCAK256 PUSH1 0x1 ADD SLOAD SWAP1 MLOAD PUSH4 0x23B872DD PUSH1 0xE0 SHL DUP2 MSTORE ADDRESS PUSH1 0x4 DUP3 ADD MSTORE PUSH1 0x1 PUSH1 0x1 PUSH1 0xA0 SHL SUB SWAP2 DUP3 AND PUSH1 0x24 DUP3 ADD MSTORE PUSH1 0x44 DUP2 ADD DUP6 SWAP1 MSTORE SWAP2 AND SWAP1 PUSH4 0x23B872DD SWAP1 PUSH1 0x64 ADD PUSH1 0x0 PUSH1 0x40 MLOAD DUP1 DUP4 SUB DUP2 PUSH1 0x0 DUP8 DUP1 EXTCODESIZE ISZERO DUP1 ISZERO PUSH2 0x561 JUMPI PUSH1 0x0 DUP1 REVERT JUMPDEST POP GAS CALL ISZERO DUP1 ISZERO PUSH2 0x575 JUMPI RETURNDATASIZE PUSH1 0x0 DUP1 RETURNDATACOPY RETURNDATASIZE PUSH1 0x0 REVERT JUMPDEST POP POP POP PUSH1 0x0 DUP4 DUP2 MSTORE PUSH1 0x5 PUSH1 0x20 SWAP1 DUP2 MSTORE PUSH1 0x40 SWAP2 DUP3 SWAP1 KECCAK256 PUSH1 0x1 ADD SLOAD SWAP2 MLOAD DUP6 DUP2 MSTORE PUSH1 0x1 PUSH1 0x1 PUSH1 0xA0 SHL SUB SWAP1 SWAP3 AND SWAP3 POP PUSH32 0x59994F7BED7AB9B9C914EFB2B3467EE88E9A9B45AFC792C3493D0B3583448154 SWAP2 ADD PUSH1 0x40 MLOAD DUP1 SWAP2 SUB SWAP1 LOG2 PUSH1 0x0 DUP3 DUP2 MSTORE PUSH1 0x5 PUSH1 0x20 MSTORE PUSH1 0x40 DUP2 KECCAK256 DUP2 DUP2 SSTORE PUSH1 0x1 DUP2 ADD DUP1 SLOAD PUSH1 0x1 PUSH1 0x1 PUSH1 0xA0 SHL SUB NOT AND SWAP1 SSTORE SWAP1 PUSH2 0x5FC PUSH1 0x2 DUP4 ADD DUP3 PUSH2 0x12D1 JUMP JUMPDEST POP POP POP POP JUMP JUMPDEST CALLER PUSH1 0x0 SWAP1 DUP2 MSTORE PUSH1 0x4 PUSH1 0x20 MSTORE PUSH1 0x40 DUP2 KECCAK256 DUP1 SLOAD DUP5 SWAP3 SWAP1 PUSH2 0x621 SWAP1 DUP5 SWAP1 PUSH2 0x14CF JUMP JUMPDEST SWAP1 SWAP2 SSTORE POP PUSH2 0x631 SWAP1 POP DUP3 CALLER PUSH2 0xAE2 JUMP JUMPDEST DUP2 PUSH1 0x7 PUSH1 0x0 DUP3 DUP3 SLOAD PUSH2 0x643 SWAP2 SWAP1 PUSH2 0x14CF JUMP JUMPDEST SWAP1 SWAP2 SSTORE POP PUSH2 0x652 SWAP1 POP DUP2 PUSH2 0x9BF JUMP JUMPDEST PUSH1 0x3 SLOAD PUSH1 0x40 MLOAD PUSH4 0x23B872DD PUSH1 0xE0 SHL DUP2 MSTORE CALLER PUSH1 0x4 DUP3 ADD MSTORE ADDRESS PUSH1 0x24 DUP3 ADD MSTORE PUSH1 0x44 DUP2 ADD DUP5 SWAP1 MSTORE PUSH1 0x1 PUSH1 0x1 PUSH1 0xA0 SHL SUB SWAP1 SWAP2 AND SWAP1 PUSH4 0x23B872DD SWAP1 PUSH1 0x64 ADD PUSH1 0x20 PUSH1 0x40 MLOAD DUP1 DUP4 SUB DUP2 PUSH1 0x0 DUP8 GAS CALL ISZERO DUP1 ISZERO PUSH2 0x6A9 JUMPI RETURNDATASIZE PUSH1 0x0 DUP1 RETURNDATACOPY RETURNDATASIZE PUSH1 0x0 REVERT JUMPDEST POP POP POP POP PUSH1 0x40 MLOAD RETURNDATASIZE PUSH1 0x1F NOT PUSH1 0x1F DUP3 ADD AND DUP3 ADD DUP1 PUSH1 0x40 MSTORE POP DUP2 ADD SWAP1 PUSH2 0x6CD SWAP2 SWAP1 PUSH2 0x1493 JUMP JUMPDEST POP PUSH1 0x40 MLOAD DUP3 DUP2 MSTORE CALLER SWAP1 PUSH32 0x41C2204E0B8B95E51B469B325B7C4F84DD02258C431B7728BB84F665475CD6EC SWAP1 PUSH1 0x20 ADD PUSH1 0x40 MLOAD DUP1 SWAP2 SUB SWAP1 LOG2 POP POP JUMP JUMPDEST PUSH1 0x40 DUP1 MLOAD DUP1 DUP3 ADD SWAP1 SWAP2 MSTORE PUSH1 0x0 DUP1 DUP3 MSTORE PUSH1 0x20 DUP3 ADD MSTORE PUSH1 0x1 SLOAD PUSH1 0x0 SLOAD GT PUSH2 0x72B JUMPI PUSH1 0x0 DUP1 REVERT JUMPDEST PUSH1 0x0 SLOAD PUSH1 0x1 SLOAD PUSH2 0x73C SWAP1 DUP5 SWAP1 PUSH2 0x14CF JUMP JUMPDEST LT PUSH2 0x77F JUMPI PUSH1 0x40 MLOAD PUSH3 0x461BCD PUSH1 0xE5 SHL DUP2 MSTORE PUSH1 0x20 PUSH1 0x4 DUP3 ADD MSTORE PUSH1 0x13 PUSH1 0x24 DUP3 ADD MSTORE PUSH19 0x496E646578206F7574206F6620626F756E6473 PUSH1 0x68 SHL PUSH1 0x44 DUP3 ADD MSTORE PUSH1 0x64 ADD PUSH2 0x2F8 JUMP JUMPDEST PUSH1 0x0 DUP3 PUSH1 0x1 SLOAD PUSH2 0x78F SWAP2 SWAP1 PUSH2 0x14CF JUMP JUMPDEST DUP2 SLOAD DUP2 LT PUSH2 0x79F JUMPI PUSH2 0x79F PUSH2 0x14E7 JUMP JUMPDEST PUSH1 0x0 SWAP2 DUP3 MSTORE PUSH1 0x20 SWAP2 DUP3 SWAP1 KECCAK256 PUSH1 0x40 DUP1 MLOAD DUP1 DUP3 ADD SWAP1 SWAP2 MSTORE PUSH1 0x2 SWAP1 SWAP3 MUL ADD DUP1 SLOAD DUP3 MSTORE PUSH1 0x1 ADD SLOAD PUSH1 0x1 PUSH1 0x1 PUSH1 0xA0 SHL SUB AND SWAP2 DUP2 ADD SWAP2 SWAP1 SWAP2 MSTORE SWAP1 POP SWAP2 SWAP1 POP JUMP JUMPDEST PUSH2 0x7E4 DUP2 PUSH2 0x3E9 GT SWAP1 JUMP JUMPDEST PUSH2 0x830 JUMPI PUSH1 0x40 MLOAD PUSH3 0x461BCD PUSH1 0xE5 SHL DUP2 MSTORE PUSH1 0x20 PUSH1 0x4 DUP3 ADD MSTORE PUSH1 0x18 PUSH1 0x24 DUP3 ADD MSTORE PUSH32 0x43616E2774206465706F7369742074686973204B6F6E672E0000000000000000 PUSH1 0x44 DUP3 ADD MSTORE PUSH1 0x64 ADD PUSH2 0x2F8 JUMP JUMPDEST PUSH1 0x0 DUP2 DUP2 MSTORE PUSH1 0x5 PUSH1 0x20 MSTORE PUSH1 0x40 SWAP1 KECCAK256 TIMESTAMP DUP2 SSTORE PUSH1 0x1 ADD DUP1 SLOAD PUSH1 0x1 PUSH1 0x1 PUSH1 0xA0 SHL SUB NOT AND CALLER OR SWAP1 SSTORE PUSH2 0x85D DUP2 PUSH2 0xB77 JUMP JUMPDEST PUSH1 0x2 SLOAD PUSH1 0x40 MLOAD PUSH4 0x23B872DD PUSH1 0xE0 SHL DUP2 MSTORE CALLER PUSH1 0x4 DUP3 ADD MSTORE ADDRESS PUSH1 0x24 DUP3 ADD MSTORE PUSH1 0x44 DUP2 ADD DUP4 SWAP1 MSTORE PUSH1 0x1 PUSH1 0x1 PUSH1 0xA0 SHL SUB SWAP1 SWAP2 AND SWAP1 PUSH4 0x23B872DD SWAP1 PUSH1 0x64 ADD PUSH1 0x0 PUSH1 0x40 MLOAD DUP1 DUP4 SUB DUP2 PUSH1 0x0 DUP8 DUP1 EXTCODESIZE ISZERO DUP1 ISZERO PUSH2 0x8AF JUMPI PUSH1 0x0 DUP1 REVERT JUMPDEST POP GAS CALL ISZERO DUP1 ISZERO PUSH2 0x8C3 JUMPI RETURNDATASIZE PUSH1 0x0 DUP1 RETURNDATACOPY RETURNDATASIZE PUSH1 0x0 REVERT JUMPDEST POP POP PUSH1 0x3 SLOAD PUSH1 0x1 PUSH1 0x1 PUSH1 0xA0 SHL SUB AND SWAP2 POP PUSH4 0xA9059CBB SWAP1 POP CALLER PUSH1 0x64 PUSH1 0x50 PUSH2 0x8F2 PUSH1 0xA PUSH8 0x8AC7230489E80000 PUSH2 0x14B0 JUMP JUMPDEST PUSH2 0x8FC SWAP2 SWAP1 PUSH2 0x14B0 JUMP JUMPDEST PUSH2 0x906 SWAP2 SWAP1 PUSH2 0x14FD JUMP JUMPDEST PUSH1 0x40 MLOAD PUSH1 0x1 PUSH1 0x1 PUSH1 0xE0 SHL SUB NOT PUSH1 0xE0 DUP6 SWAP1 SHL AND DUP2 MSTORE PUSH1 0x1 PUSH1 0x1 PUSH1 0xA0 SHL SUB SWAP1 SWAP3 AND PUSH1 0x4 DUP4 ADD MSTORE PUSH1 0x24 DUP3 ADD MSTORE PUSH1 0x44 ADD PUSH1 0x20 PUSH1 0x40 MLOAD DUP1 DUP4 SUB DUP2 PUSH1 0x0 DUP8 GAS CALL ISZERO DUP1 ISZERO PUSH2 0x951 JUMPI RETURNDATASIZE PUSH1 0x0 DUP1 RETURNDATACOPY RETURNDATASIZE PUSH1 0x0 REVERT JUMPDEST POP POP POP POP PUSH1 0x40 MLOAD RETURNDATASIZE PUSH1 0x1F NOT PUSH1 0x1F DUP3 ADD AND DUP3 ADD DUP1 PUSH1 0x40 MSTORE POP DUP2 ADD SWAP1 PUSH2 0x975 SWAP2 SWAP1 PUSH2 0x1493 JUMP JUMPDEST POP PUSH1 0x40 MLOAD DUP2 DUP2 MSTORE CALLER SWAP1 PUSH32 0xC51AA48E8A485BD6477140A30BC33ABE671D92F680DD8A75C516B926AA009D93 SWAP1 PUSH1 0x20 ADD PUSH2 0x3E0 JUMP JUMPDEST PUSH1 0x1 SLOAD PUSH1 0x0 DUP1 SLOAD SWAP1 SWAP2 PUSH2 0x9BA SWAP2 PUSH2 0x147C JUMP JUMPDEST SWAP1 POP SWAP1 JUMP JUMPDEST CALLER PUSH1 0x0 SWAP1 DUP2 MSTORE PUSH1 0x6 PUSH1 0x20 MSTORE PUSH1 0x40 SWAP1 KECCAK256 SLOAD PUSH1 0xFF AND ISZERO ISZERO DUP2 ISZERO ISZERO EQ ISZERO PUSH2 0x3F4 JUMPI CALLER PUSH1 0x0 SWAP1 DUP2 MSTORE PUSH1 0x6 PUSH1 0x20 MSTORE PUSH1 0x40 SWAP1 KECCAK256 DUP1 SLOAD PUSH1 0xFF NOT AND DUP3 ISZERO OR SWAP1 SSTORE POP JUMP JUMPDEST PUSH1 0x0 PUSH3 0x15180 PUSH2 0xA12 DUP4 PUSH8 0x8AC7230489E80000 PUSH2 0x14B0 JUMP JUMPDEST PUSH2 0xA1C SWAP2 SWAP1 PUSH2 0x14FD JUMP JUMPDEST SWAP3 SWAP2 POP POP JUMP JUMPDEST PUSH1 0x0 DUP2 DUP2 MSTORE PUSH1 0x5 PUSH1 0x20 MSTORE PUSH1 0x40 SWAP1 KECCAK256 PUSH1 0x1 ADD SLOAD PUSH1 0x1 PUSH1 0x1 PUSH1 0xA0 SHL SUB AND CALLER EQ ISZERO PUSH2 0xA52 JUMPI PUSH2 0xA4E DUP2 DUP4 PUSH2 0xF0C JUMP JUMPDEST POP POP JUMP JUMPDEST PUSH1 0x0 JUMPDEST PUSH1 0x0 DUP3 DUP2 MSTORE PUSH1 0x5 PUSH1 0x20 MSTORE PUSH1 0x40 SWAP1 KECCAK256 PUSH1 0x2 ADD SLOAD DUP2 LT ISZERO PUSH2 0xAD7 JUMPI PUSH1 0x0 DUP3 DUP2 MSTORE PUSH1 0x5 PUSH1 0x20 MSTORE PUSH1 0x40 SWAP1 KECCAK256 PUSH1 0x2 ADD DUP1 SLOAD DUP3 SWAP1 DUP2 LT PUSH2 0xA91 JUMPI PUSH2 0xA91 PUSH2 0x14E7 JUMP JUMPDEST PUSH1 0x0 SWAP2 DUP3 MSTORE PUSH1 0x20 SWAP1 SWAP2 KECCAK256 PUSH1 0x2 SWAP1 SWAP2 MUL ADD PUSH1 0x1 ADD SLOAD PUSH1 0x1 PUSH1 0x1 PUSH1 0xA0 SHL SUB AND CALLER EQ ISZERO PUSH2 0xAC5 JUMPI PUSH2 0xAC0 DUP3 DUP5 DUP4 PUSH2 0xFE3 JUMP JUMPDEST POP POP POP JUMP JUMPDEST DUP1 PUSH2 0xACF DUP2 PUSH2 0x151F JUMP JUMPDEST SWAP2 POP POP PUSH2 0xA55 JUMP JUMPDEST POP PUSH2 0xA4E DUP2 DUP4 PUSH2 0xF0C JUMP JUMPDEST PUSH1 0x40 DUP1 MLOAD DUP1 DUP3 ADD SWAP1 SWAP2 MSTORE SWAP2 DUP3 MSTORE PUSH1 0x1 PUSH1 0x1 PUSH1 0xA0 SHL SUB SWAP1 DUP2 AND PUSH1 0x20 DUP4 ADD SWAP1 DUP2 MSTORE PUSH1 0x0 DUP1 SLOAD PUSH1 0x1 DUP2 ADD DUP3 SSTORE SWAP1 DUP1 MSTORE SWAP3 MLOAD PUSH32 0x290DECD9548B62A8D60345A988386FC84BA6BC95484008F6362F93160EF3E563 PUSH1 0x2 SWAP1 SWAP5 MUL SWAP4 DUP5 ADD SSTORE MLOAD PUSH32 0x290DECD9548B62A8D60345A988386FC84BA6BC95484008F6362F93160EF3E564 SWAP1 SWAP3 ADD DUP1 SLOAD PUSH1 0x1 PUSH1 0x1 PUSH1 0xA0 SHL SUB NOT AND SWAP3 SWAP1 SWAP2 AND SWAP2 SWAP1 SWAP2 OR SWAP1 SSTORE JUMP JUMPDEST PUSH1 0x64 PUSH1 0x50 PUSH2 0xB8E PUSH1 0xA PUSH8 0x8AC7230489E80000 PUSH2 0x14B0 JUMP JUMPDEST PUSH2 0xB98 SWAP2 SWAP1 PUSH2 0x14B0 JUMP JUMPDEST PUSH2 0xBA2 SWAP2 SWAP1 PUSH2 0x14FD JUMP JUMPDEST PUSH1 0x7 SLOAD LT ISZERO PUSH2 0xBFE JUMPI PUSH1 0x40 MLOAD PUSH3 0x461BCD PUSH1 0xE5 SHL DUP2 MSTORE PUSH1 0x20 PUSH1 0x4 DUP3 ADD MSTORE PUSH1 0x22 PUSH1 0x24 DUP3 ADD MSTORE PUSH32 0x4E6F7420656E6F7567682062616E616E617320746F2066756E642061206C6F61 PUSH1 0x44 DUP3 ADD MSTORE PUSH2 0x3717 PUSH1 0xF1 SHL PUSH1 0x64 DUP3 ADD MSTORE PUSH1 0x84 ADD PUSH2 0x2F8 JUMP JUMPDEST PUSH1 0x0 JUMPDEST PUSH1 0x1 SLOAD PUSH1 0x0 SLOAD GT ISZERO PUSH2 0xECD JUMPI PUSH1 0x0 PUSH2 0xC17 PUSH2 0x10C9 JUMP JUMPDEST PUSH1 0x20 DUP1 DUP3 ADD MLOAD PUSH1 0x1 PUSH1 0x1 PUSH1 0xA0 SHL SUB AND PUSH1 0x0 SWAP1 DUP2 MSTORE PUSH1 0x4 SWAP1 SWAP2 MSTORE PUSH1 0x40 SWAP1 KECCAK256 SLOAD SWAP1 SWAP2 POP PUSH2 0xC4B JUMPI PUSH2 0xC44 PUSH2 0x113A JUMP JUMPDEST POP POP PUSH2 0xC01 JUMP JUMPDEST DUP1 MLOAD PUSH1 0x20 DUP1 DUP4 ADD MLOAD PUSH1 0x1 PUSH1 0x1 PUSH1 0xA0 SHL SUB AND PUSH1 0x0 SWAP1 DUP2 MSTORE PUSH1 0x4 SWAP1 SWAP2 MSTORE PUSH1 0x40 DUP2 KECCAK256 SLOAD SWAP1 SWAP2 GT ISZERO PUSH2 0xC97 JUMPI POP PUSH1 0x20 DUP1 DUP3 ADD MLOAD PUSH1 0x1 PUSH1 0x1 PUSH1 0xA0 SHL SUB AND PUSH1 0x0 SWAP1 DUP2 MSTORE PUSH1 0x4 SWAP1 SWAP2 MSTORE PUSH1 0x40 SWAP1 KECCAK256 SLOAD PUSH2 0xC9B JUMP JUMPDEST POP DUP1 MLOAD JUMPDEST PUSH1 0x0 PUSH2 0xCA7 DUP3 DUP6 PUSH2 0x14CF JUMP JUMPDEST SWAP1 POP PUSH1 0x64 PUSH1 0x50 PUSH2 0xCC0 PUSH1 0xA PUSH8 0x8AC7230489E80000 PUSH2 0x14B0 JUMP JUMPDEST PUSH2 0xCCA SWAP2 SWAP1 PUSH2 0x14B0 JUMP JUMPDEST PUSH2 0xCD4 SWAP2 SWAP1 PUSH2 0x14FD JUMP JUMPDEST DUP2 GT ISZERO PUSH2 0xDD9 JUMPI PUSH1 0x0 DUP5 PUSH1 0x64 PUSH1 0x50 PUSH2 0xCF5 PUSH1 0xA PUSH8 0x8AC7230489E80000 PUSH2 0x14B0 JUMP JUMPDEST PUSH2 0xCFF SWAP2 SWAP1 PUSH2 0x14B0 JUMP JUMPDEST PUSH2 0xD09 SWAP2 SWAP1 PUSH2 0x14FD JUMP JUMPDEST PUSH2 0xD13 SWAP2 SWAP1 PUSH2 0x147C JUMP JUMPDEST SWAP1 POP PUSH1 0x0 PUSH2 0xD21 DUP3 DUP6 PUSH2 0x147C JUMP JUMPDEST SWAP1 POP PUSH2 0xD2C DUP2 PUSH2 0x11AC JUMP JUMPDEST PUSH1 0x0 DUP8 DUP2 MSTORE PUSH1 0x5 PUSH1 0x20 SWAP1 DUP2 MSTORE PUSH1 0x40 DUP1 DUP4 KECCAK256 DUP2 MLOAD DUP1 DUP4 ADD DUP4 MSTORE DUP7 DUP2 MSTORE DUP10 DUP5 ADD DUP1 MLOAD PUSH1 0x1 PUSH1 0x1 PUSH1 0xA0 SHL SUB SWAP1 DUP2 AND DUP4 DUP8 ADD SWAP1 DUP2 MSTORE PUSH1 0x2 SWAP5 DUP6 ADD DUP1 SLOAD PUSH1 0x1 DUP1 DUP3 ADD DUP4 SSTORE SWAP2 DUP11 MSTORE DUP9 DUP11 KECCAK256 SWAP6 MLOAD SWAP7 MUL SWAP1 SWAP5 ADD SWAP5 DUP6 SSTORE MLOAD SWAP4 SWAP1 SWAP3 ADD DUP1 SLOAD PUSH1 0x1 PUSH1 0x1 PUSH1 0xA0 SHL SUB NOT AND SWAP4 DUP4 AND SWAP4 SWAP1 SWAP4 OR SWAP1 SWAP3 SSTORE SWAP1 MLOAD AND DUP4 MSTORE PUSH1 0x4 SWAP1 SWAP2 MSTORE DUP2 KECCAK256 DUP1 SLOAD DUP5 SWAP3 SWAP1 PUSH2 0xDB2 SWAP1 DUP5 SWAP1 PUSH2 0x147C JUMP JUMPDEST SWAP3 POP POP DUP2 SWAP1 SSTORE POP DUP2 PUSH1 0x7 PUSH1 0x0 DUP3 DUP3 SLOAD PUSH2 0xDCB SWAP2 SWAP1 PUSH2 0x147C JUMP JUMPDEST SWAP1 SWAP2 SSTORE POP POP POP POP POP POP POP POP POP JUMP JUMPDEST PUSH1 0x0 DUP6 DUP2 MSTORE PUSH1 0x5 PUSH1 0x20 SWAP1 DUP2 MSTORE PUSH1 0x40 DUP1 DUP4 KECCAK256 DUP2 MLOAD DUP1 DUP4 ADD DUP4 MSTORE DUP7 DUP2 MSTORE DUP8 DUP5 ADD DUP1 MLOAD PUSH1 0x1 PUSH1 0x1 PUSH1 0xA0 SHL SUB SWAP1 DUP2 AND DUP4 DUP8 ADD SWAP1 DUP2 MSTORE PUSH1 0x2 SWAP5 DUP6 ADD DUP1 SLOAD PUSH1 0x1 DUP1 DUP3 ADD DUP4 SSTORE SWAP2 DUP11 MSTORE DUP9 DUP11 KECCAK256 SWAP6 MLOAD SWAP7 MUL SWAP1 SWAP5 ADD SWAP5 DUP6 SSTORE MLOAD SWAP4 SWAP1 SWAP3 ADD DUP1 SLOAD PUSH1 0x1 PUSH1 0x1 PUSH1 0xA0 SHL SUB NOT AND SWAP4 DUP4 AND SWAP4 SWAP1 SWAP4 OR SWAP1 SWAP3 SSTORE SWAP1 MLOAD AND DUP4 MSTORE PUSH1 0x4 SWAP1 SWAP2 MSTORE DUP2 KECCAK256 DUP1 SLOAD SWAP3 SWAP6 POP DUP6 SWAP3 DUP5 SWAP3 SWAP1 PUSH2 0xE64 SWAP1 DUP5 SWAP1 PUSH2 0x147C JUMP JUMPDEST SWAP3 POP POP DUP2 SWAP1 SSTORE POP DUP2 PUSH1 0x7 PUSH1 0x0 DUP3 DUP3 SLOAD PUSH2 0xE7D SWAP2 SWAP1 PUSH2 0x147C JUMP JUMPDEST SWAP1 SWAP2 SSTORE POP PUSH2 0xE8B SWAP1 POP PUSH2 0x113A JUMP JUMPDEST POP PUSH1 0x64 PUSH1 0x50 PUSH2 0xEA3 PUSH1 0xA PUSH8 0x8AC7230489E80000 PUSH2 0x14B0 JUMP JUMPDEST PUSH2 0xEAD SWAP2 SWAP1 PUSH2 0x14B0 JUMP JUMPDEST PUSH2 0xEB7 SWAP2 SWAP1 PUSH2 0x14FD JUMP JUMPDEST DUP2 EQ ISZERO PUSH2 0xEC5 JUMPI POP POP POP POP POP JUMP JUMPDEST POP POP POP PUSH2 0xC01 JUMP JUMPDEST PUSH1 0x40 MLOAD PUSH3 0x461BCD PUSH1 0xE5 SHL DUP2 MSTORE PUSH1 0x20 PUSH1 0x4 DUP3 ADD MSTORE PUSH1 0x14 PUSH1 0x24 DUP3 ADD MSTORE PUSH20 0x2737BA1032B737BAB3B4103232B837B9B4BA3997 PUSH1 0x61 SHL PUSH1 0x44 DUP3 ADD MSTORE PUSH1 0x64 ADD PUSH2 0x2F8 JUMP JUMPDEST PUSH1 0x0 JUMPDEST PUSH1 0x0 DUP4 DUP2 MSTORE PUSH1 0x5 PUSH1 0x20 MSTORE PUSH1 0x40 SWAP1 KECCAK256 PUSH1 0x2 ADD SLOAD DUP2 LT ISZERO PUSH2 0xAC0 JUMPI PUSH1 0x0 DUP4 DUP2 MSTORE PUSH1 0x5 PUSH1 0x20 MSTORE PUSH1 0x40 DUP2 KECCAK256 PUSH1 0x2 ADD DUP1 SLOAD DUP4 SWAP1 DUP2 LT PUSH2 0xF4B JUMPI PUSH2 0xF4B PUSH2 0x14E7 JUMP JUMPDEST PUSH1 0x0 SWAP2 DUP3 MSTORE PUSH1 0x20 DUP1 DUP4 KECCAK256 PUSH1 0x40 DUP1 MLOAD DUP1 DUP3 ADD SWAP1 SWAP2 MSTORE PUSH1 0x2 SWAP1 SWAP4 MUL ADD DUP1 SLOAD DUP4 MSTORE PUSH1 0x1 ADD SLOAD PUSH1 0x1 PUSH1 0x1 PUSH1 0xA0 SHL SUB AND SWAP1 DUP3 ADD MSTORE SWAP2 POP PUSH1 0x64 PUSH1 0x50 PUSH2 0xF93 PUSH1 0xA PUSH8 0x8AC7230489E80000 PUSH2 0x14B0 JUMP JUMPDEST PUSH2 0xF9D SWAP2 SWAP1 PUSH2 0x14B0 JUMP JUMPDEST PUSH2 0xFA7 SWAP2 SWAP1 PUSH2 0x14FD JUMP JUMPDEST DUP3 MLOAD PUSH2 0xFB4 SWAP1 DUP7 SWAP1 PUSH2 0x14B0 JUMP JUMPDEST PUSH2 0xFBE SWAP2 SWAP1 PUSH2 0x14FD JUMP JUMPDEST SWAP1 POP PUSH2 0xFCE DUP3 PUSH1 0x20 ADD MLOAD DUP3 PUSH2 0x11E6 JUMP JUMPDEST POP POP DUP1 DUP1 PUSH2 0xFDB SWAP1 PUSH2 0x151F JUMP JUMPDEST SWAP2 POP POP PUSH2 0xF0F JUMP JUMPDEST PUSH1 0x0 JUMPDEST PUSH1 0x0 DUP5 DUP2 MSTORE PUSH1 0x5 PUSH1 0x20 MSTORE PUSH1 0x40 SWAP1 KECCAK256 PUSH1 0x2 ADD SLOAD DUP2 LT ISZERO PUSH2 0x5FC JUMPI PUSH1 0x0 DUP5 DUP2 MSTORE PUSH1 0x5 PUSH1 0x20 MSTORE PUSH1 0x40 DUP2 KECCAK256 PUSH1 0x2 ADD DUP1 SLOAD DUP4 SWAP1 DUP2 LT PUSH2 0x1022 JUMPI PUSH2 0x1022 PUSH2 0x14E7 JUMP JUMPDEST PUSH1 0x0 SWAP2 DUP3 MSTORE PUSH1 0x20 DUP1 DUP4 KECCAK256 PUSH1 0x40 DUP1 MLOAD DUP1 DUP3 ADD SWAP1 SWAP2 MSTORE PUSH1 0x2 SWAP1 SWAP4 MUL ADD DUP1 SLOAD DUP1 DUP5 MSTORE PUSH1 0x1 SWAP1 SWAP2 ADD SLOAD PUSH1 0x1 PUSH1 0x1 PUSH1 0xA0 SHL SUB AND SWAP2 DUP4 ADD SWAP2 SWAP1 SWAP2 MSTORE SWAP1 SWAP3 POP PUSH1 0x50 SWAP1 PUSH2 0x1068 SWAP1 PUSH1 0x64 PUSH2 0x14B0 JUMP JUMPDEST PUSH2 0x1072 SWAP2 SWAP1 PUSH2 0x14FD JUMP JUMPDEST SWAP1 POP DUP4 DUP4 EQ ISZERO PUSH2 0x10A6 JUMPI PUSH2 0x108F PUSH1 0xA PUSH8 0x8AC7230489E80000 PUSH2 0x14B0 JUMP JUMPDEST PUSH2 0x1099 SWAP1 DUP7 PUSH2 0x147C JUMP JUMPDEST PUSH2 0x10A3 SWAP1 DUP3 PUSH2 0x14CF JUMP JUMPDEST SWAP1 POP JUMPDEST PUSH2 0x10B4 DUP3 PUSH1 0x20 ADD MLOAD DUP3 PUSH2 0x11E6 JUMP JUMPDEST POP POP DUP1 DUP1 PUSH2 0x10C1 SWAP1 PUSH2 0x151F JUMP JUMPDEST SWAP2 POP POP PUSH2 0xFE6 JUMP JUMPDEST PUSH1 0x40 DUP1 MLOAD DUP1 DUP3 ADD SWAP1 SWAP2 MSTORE PUSH1 0x0 DUP1 DUP3 MSTORE PUSH1 0x20 DUP3 ADD MSTORE PUSH1 0x1 SLOAD PUSH1 0x0 SLOAD GT PUSH2 0x10ED JUMPI PUSH1 0x0 DUP1 REVERT JUMPDEST PUSH1 0x0 PUSH1 0x1 SLOAD DUP2 SLOAD DUP2 LT PUSH2 0x1102 JUMPI PUSH2 0x1102 PUSH2 0x14E7 JUMP JUMPDEST PUSH1 0x0 SWAP2 DUP3 MSTORE PUSH1 0x20 SWAP2 DUP3 SWAP1 KECCAK256 PUSH1 0x40 DUP1 MLOAD DUP1 DUP3 ADD SWAP1 SWAP2 MSTORE PUSH1 0x2 SWAP1 SWAP3 MUL ADD DUP1 SLOAD DUP3 MSTORE PUSH1 0x1 ADD SLOAD PUSH1 0x1 PUSH1 0x1 PUSH1 0xA0 SHL SUB AND SWAP2 DUP2 ADD SWAP2 SWAP1 SWAP2 MSTORE SWAP1 POP SWAP1 JUMP JUMPDEST PUSH1 0x40 DUP1 MLOAD DUP1 DUP3 ADD SWAP1 SWAP2 MSTORE PUSH1 0x0 DUP1 DUP3 MSTORE PUSH1 0x20 DUP3 ADD MSTORE PUSH1 0x1 SLOAD PUSH1 0x0 SLOAD GT PUSH2 0x115E JUMPI PUSH1 0x0 DUP1 REVERT JUMPDEST PUSH1 0x0 PUSH1 0x1 SLOAD DUP2 SLOAD DUP2 LT PUSH2 0x1173 JUMPI PUSH2 0x1173 PUSH2 0x14E7 JUMP JUMPDEST PUSH1 0x0 SWAP2 DUP3 MSTORE PUSH1 0x20 DUP3 KECCAK256 PUSH1 0x2 SWAP1 SWAP2 MUL ADD DUP2 DUP2 SSTORE PUSH1 0x1 SWAP1 DUP2 ADD DUP1 SLOAD PUSH1 0x1 PUSH1 0x1 PUSH1 0xA0 SHL SUB NOT AND SWAP1 SSTORE DUP1 SLOAD SWAP2 PUSH2 0x11A4 DUP4 PUSH2 0x151F JUMP JUMPDEST SWAP2 SWAP1 POP SSTORE POP SWAP1 JUMP JUMPDEST PUSH1 0x1 SLOAD PUSH1 0x0 SLOAD GT PUSH2 0x11BC JUMPI PUSH1 0x0 DUP1 REVERT JUMPDEST DUP1 PUSH1 0x0 PUSH1 0x1 SLOAD DUP2 SLOAD DUP2 LT PUSH2 0x11D2 JUMPI PUSH2 0x11D2 PUSH2 0x14E7 JUMP JUMPDEST PUSH1 0x0 SWAP2 DUP3 MSTORE PUSH1 0x20 SWAP1 SWAP2 KECCAK256 PUSH1 0x2 SWAP1 SWAP2 MUL ADD SSTORE POP JUMP JUMPDEST PUSH1 0x1 PUSH1 0x1 PUSH1 0xA0 SHL SUB DUP3 AND PUSH1 0x0 SWAP1 DUP2 MSTORE PUSH1 0x6 PUSH1 0x20 MSTORE PUSH1 0x40 SWAP1 KECCAK256 SLOAD PUSH1 0xFF AND ISZERO PUSH2 0x127E JUMPI PUSH1 0x3 SLOAD PUSH1 0x40 MLOAD PUSH4 0xA9059CBB PUSH1 0xE0 SHL DUP2 MSTORE PUSH1 0x1 PUSH1 0x1 PUSH1 0xA0 SHL SUB DUP5 DUP2 AND PUSH1 0x4 DUP4 ADD MSTORE PUSH1 0x24 DUP3 ADD DUP5 SWAP1 MSTORE SWAP1 SWAP2 AND SWAP1 PUSH4 0xA9059CBB SWAP1 PUSH1 0x44 ADD PUSH1 0x20 PUSH1 0x40 MLOAD DUP1 DUP4 SUB DUP2 PUSH1 0x0 DUP8 GAS CALL ISZERO DUP1 ISZERO PUSH2 0x125A JUMPI RETURNDATASIZE PUSH1 0x0 DUP1 RETURNDATACOPY RETURNDATASIZE PUSH1 0x0 REVERT JUMPDEST POP POP POP POP PUSH1 0x40 MLOAD RETURNDATASIZE PUSH1 0x1F NOT PUSH1 0x1F DUP3 ADD AND DUP3 ADD DUP1 PUSH1 0x40 MSTORE POP DUP2 ADD SWAP1 PUSH2 0xAC0 SWAP2 SWAP1 PUSH2 0x1493 JUMP JUMPDEST PUSH1 0x1 PUSH1 0x1 PUSH1 0xA0 SHL SUB DUP3 AND PUSH1 0x0 SWAP1 DUP2 MSTORE PUSH1 0x4 PUSH1 0x20 MSTORE PUSH1 0x40 DUP2 KECCAK256 DUP1 SLOAD DUP4 SWAP3 SWAP1 PUSH2 0x12A6 SWAP1 DUP5 SWAP1 PUSH2 0x14CF JUMP JUMPDEST SWAP1 SWAP2 SSTORE POP PUSH2 0x12B6 SWAP1 POP DUP2 DUP4 PUSH2 0xAE2 JUMP JUMPDEST DUP1 PUSH1 0x7 PUSH1 0x0 DUP3 DUP3 SLOAD PUSH2 0x12C8 SWAP2 SWAP1 PUSH2 0x14CF JUMP JUMPDEST SWAP1 SWAP2 SSTORE POP POP POP POP JUMP JUMPDEST POP DUP1 SLOAD PUSH1 0x0 DUP3 SSTORE PUSH1 0x2 MUL SWAP1 PUSH1 0x0 MSTORE PUSH1 0x20 PUSH1 0x0 KECCAK256 SWAP1 DUP2 ADD SWAP1 PUSH2 0x3F4 SWAP2 SWAP1 JUMPDEST DUP1 DUP3 GT ISZERO PUSH2 0x1314 JUMPI PUSH1 0x0 DUP2 SSTORE PUSH1 0x1 DUP2 ADD DUP1 SLOAD PUSH1 0x1 PUSH1 0x1 PUSH1 0xA0 SHL SUB NOT AND SWAP1 SSTORE PUSH1 0x2 ADD PUSH2 0x12EE JUMP JUMPDEST POP SWAP1 JUMP JUMPDEST PUSH1 0x0 PUSH1 0x20 DUP3 DUP5 SUB SLT ISZERO PUSH2 0x132A JUMPI PUSH1 0x0 DUP1 REVERT JUMPDEST POP CALLDATALOAD SWAP2 SWAP1 POP JUMP JUMPDEST PUSH1 0x20 DUP1 DUP3 MSTORE DUP3 MLOAD DUP3 DUP3 ADD MSTORE DUP3 DUP2 ADD MLOAD PUSH1 0x1 PUSH1 0x1 PUSH1 0xA0 SHL SUB AND PUSH1 0x40 DUP1 DUP5 ADD SWAP2 SWAP1 SWAP2 MSTORE DUP1 DUP5 ADD MLOAD PUSH1 0x60 DUP1 DUP6 ADD MSTORE DUP1 MLOAD PUSH1 0x80 DUP6 ADD DUP2 SWAP1 MSTORE PUSH1 0x0 SWAP4 SWAP3 SWAP2 DUP4 ADD SWAP2 DUP5 SWAP2 PUSH1 0xA0 DUP8 ADD SWAP1 JUMPDEST DUP1 DUP5 LT ISZERO PUSH2 0x13AF JUMPI PUSH2 0x139B DUP3 DUP7 MLOAD DUP1 MLOAD DUP3 MSTORE PUSH1 0x20 SWAP1 DUP2 ADD MLOAD PUSH1 0x1 PUSH1 0x1 PUSH1 0xA0 SHL SUB AND SWAP2 ADD MSTORE JUMP JUMPDEST SWAP4 DUP6 ADD SWAP4 PUSH1 0x1 SWAP4 SWAP1 SWAP4 ADD SWAP3 SWAP1 DUP3 ADD SWAP1 PUSH2 0x1375 JUMP JUMPDEST POP SWAP8 SWAP7 POP POP POP POP POP POP POP JUMP JUMPDEST PUSH1 0x0 PUSH1 0x20 DUP3 DUP5 SUB SLT ISZERO PUSH2 0x13CD JUMPI PUSH1 0x0 DUP1 REVERT JUMPDEST DUP2 CALLDATALOAD PUSH1 0x1 PUSH1 0x1 PUSH1 0xA0 SHL SUB DUP2 AND DUP2 EQ PUSH2 0x13E4 JUMPI PUSH1 0x0 DUP1 REVERT JUMPDEST SWAP4 SWAP3 POP POP POP JUMP JUMPDEST DUP1 ISZERO ISZERO DUP2 EQ PUSH2 0x3F4 JUMPI PUSH1 0x0 DUP1 REVERT JUMPDEST PUSH1 0x0 PUSH1 0x20 DUP3 DUP5 SUB SLT ISZERO PUSH2 0x140B JUMPI PUSH1 0x0 DUP1 REVERT JUMPDEST DUP2 CALLDATALOAD PUSH2 0x13E4 DUP2 PUSH2 0x13EB JUMP JUMPDEST PUSH1 0x0 DUP1 PUSH1 0x40 DUP4 DUP6 SUB SLT ISZERO PUSH2 0x1429 JUMPI PUSH1 0x0 DUP1 REVERT JUMPDEST DUP3 CALLDATALOAD SWAP2 POP PUSH1 0x20 DUP4 ADD CALLDATALOAD PUSH2 0x143B DUP2 PUSH2 0x13EB JUMP JUMPDEST DUP1 SWAP2 POP POP SWAP3 POP SWAP3 SWAP1 POP JUMP JUMPDEST DUP2 MLOAD DUP2 MSTORE PUSH1 0x20 DUP1 DUP4 ADD MLOAD PUSH1 0x1 PUSH1 0x1 PUSH1 0xA0 SHL SUB AND SWAP1 DUP3 ADD MSTORE PUSH1 0x40 DUP2 ADD PUSH2 0xA1C JUMP JUMPDEST PUSH4 0x4E487B71 PUSH1 0xE0 SHL PUSH1 0x0 MSTORE PUSH1 0x11 PUSH1 0x4 MSTORE PUSH1 0x24 PUSH1 0x0 REVERT JUMPDEST PUSH1 0x0 DUP3 DUP3 LT ISZERO PUSH2 0x148E JUMPI PUSH2 0x148E PUSH2 0x1466 JUMP JUMPDEST POP SUB SWAP1 JUMP JUMPDEST PUSH1 0x0 PUSH1 0x20 DUP3 DUP5 SUB SLT ISZERO PUSH2 0x14A5 JUMPI PUSH1 0x0 DUP1 REVERT JUMPDEST DUP2 MLOAD PUSH2 0x13E4 DUP2 PUSH2 0x13EB JUMP JUMPDEST PUSH1 0x0 DUP2 PUSH1 0x0 NOT DIV DUP4 GT DUP3 ISZERO ISZERO AND ISZERO PUSH2 0x14CA JUMPI PUSH2 0x14CA PUSH2 0x1466 JUMP JUMPDEST POP MUL SWAP1 JUMP JUMPDEST PUSH1 0x0 DUP3 NOT DUP3 GT ISZERO PUSH2 0x14E2 JUMPI PUSH2 0x14E2 PUSH2 0x1466 JUMP JUMPDEST POP ADD SWAP1 JUMP JUMPDEST PUSH4 0x4E487B71 PUSH1 0xE0 SHL PUSH1 0x0 MSTORE PUSH1 0x32 PUSH1 0x4 MSTORE PUSH1 0x24 PUSH1 0x0 REVERT JUMPDEST PUSH1 0x0 DUP3 PUSH2 0x151A JUMPI PUSH4 0x4E487B71 PUSH1 0xE0 SHL PUSH1 0x0 MSTORE PUSH1 0x12 PUSH1 0x4 MSTORE PUSH1 0x24 PUSH1 0x0 REVERT JUMPDEST POP DIV SWAP1 JUMP JUMPDEST PUSH1 0x0 PUSH1 0x0 NOT DUP3 EQ ISZERO PUSH2 0x1533 JUMPI PUSH2 0x1533 PUSH2 0x1466 JUMP JUMPDEST POP PUSH1 0x1 ADD SWAP1 JUMP INVALID LOG2 PUSH5 0x6970667358 0x22 SLT KECCAK256 DUP14 0x23 0xC2 0xE8 0xA5 SSTORE 0xD2 PUSH28 0x34BC43DC72AAFCC462CF25F342AC2AEDACE1001CA6E1692364736F6C PUSH4 0x4300080B STOP CALLER "
        },
        "methodIdentifiers": {
          "autoCompoundStrategy(address)": "23ad6db2",
          "depositErc20(uint256,bool)": "9c437e54",
          "depositNft(uint256)": "b7c3505f",
          "depositedNft(uint256)": "199402e5",
          "erc20Balance(address)": "b478fc07",
          "getDeposit(uint256)": "9f9fb968",
          "numDeposits()": "bbd4e8c9",
          "setAutoCompoundStrategy(bool)": "90babe8b",
          "totalErc20()": "c0316aa3",
          "withdrawErc20(uint256)": "258ab15c",
          "withdrawNft(uint256)": "910efae8"
        }
      }
    }
  }
}