{
  "_format": "hh-sol-artifact-1",
  "contractName": "HyksosCyberkongz",
  "sourceName": "contracts/HyksosCyberkongz.sol",
  "abi": [
    {
      "inputs": [
        {
          "internalType": "address",
          "name": "_bananas",
          "type": "address"
        },
        {
          "internalType": "address",
          "name": "_kongz",
          "type": "address"
        }
      ],
      "stateMutability": "nonpayable",
      "type": "constructor"
    },
    {
      "anonymous": false,
      "inputs": [
        {
          "indexed": true,
          "internalType": "address",
          "name": "addr",
          "type": "address"
        },
        {
          "indexed": false,
          "internalType": "uint256",
          "name": "value",
          "type": "uint256"
        }
      ],
      "name": "Erc20Deposit",
      "type": "event"
    },
    {
      "anonymous": false,
      "inputs": [
        {
          "indexed": true,
          "internalType": "address",
          "name": "addr",
          "type": "address"
        },
        {
          "indexed": false,
          "internalType": "uint256",
          "name": "value",
          "type": "uint256"
        }
      ],
      "name": "Erc20Withdrawal",
      "type": "event"
    },
    {
      "anonymous": false,
      "inputs": [
        {
          "indexed": true,
          "internalType": "address",
          "name": "addr",
          "type": "address"
        },
        {
          "indexed": false,
          "internalType": "uint256",
          "name": "id",
          "type": "uint256"
        }
      ],
      "name": "NftDeposit",
      "type": "event"
    },
    {
      "anonymous": false,
      "inputs": [
        {
          "indexed": true,
          "internalType": "address",
          "name": "addr",
          "type": "address"
        },
        {
          "indexed": false,
          "internalType": "uint256",
          "name": "id",
          "type": "uint256"
        }
      ],
      "name": "NftWithdrawal",
      "type": "event"
    },
    {
      "inputs": [
        {
          "internalType": "address",
          "name": "_addr",
          "type": "address"
        }
      ],
      "name": "autoCompoundStrategy",
      "outputs": [
        {
          "internalType": "bool",
          "name": "",
          "type": "bool"
        }
      ],
      "stateMutability": "view",
      "type": "function"
    },
    {
      "inputs": [
        {
          "internalType": "uint256",
          "name": "_amount",
          "type": "uint256"
        },
        {
          "internalType": "bool",
          "name": "_isAutoCompoundOn",
          "type": "bool"
        }
      ],
      "name": "depositErc20",
      "outputs": [],
      "stateMutability": "nonpayable",
      "type": "function"
    },
    {
      "inputs": [
        {
          "internalType": "uint256",
          "name": "_id",
          "type": "uint256"
        }
      ],
      "name": "depositNft",
      "outputs": [],
      "stateMutability": "nonpayable",
      "type": "function"
    },
    {
      "inputs": [
        {
          "internalType": "uint256",
          "name": "_id",
          "type": "uint256"
        }
      ],
      "name": "depositedNft",
      "outputs": [
        {
          "components": [
            {
              "internalType": "uint256",
              "name": "timeDeposited",
              "type": "uint256"
            },
            {
              "internalType": "address",
              "name": "owner",
              "type": "address"
            },
            {
              "components": [
                {
                  "internalType": "uint256",
                  "name": "amount",
                  "type": "uint256"
                },
                {
                  "internalType": "address",
                  "name": "sender",
                  "type": "address"
                }
              ],
              "internalType": "struct DepositQueue.Deposit[]",
              "name": "shareholders",
              "type": "tuple[]"
            }
          ],
          "internalType": "struct HyksosCyberkongz.DepositedNft",
          "name": "",
          "type": "tuple"
        }
      ],
      "stateMutability": "view",
      "type": "function"
    },
    {
      "inputs": [
        {
          "internalType": "address",
          "name": "_addr",
          "type": "address"
        }
      ],
      "name": "erc20Balance",
      "outputs": [
        {
          "internalType": "uint256",
          "name": "",
          "type": "uint256"
        }
      ],
      "stateMutability": "view",
      "type": "function"
    },
    {
      "inputs": [
        {
          "internalType": "uint256",
          "name": "_index",
          "type": "uint256"
        }
      ],
      "name": "getDeposit",
      "outputs": [
        {
          "components": [
            {
              "internalType": "uint256",
              "name": "amount",
              "type": "uint256"
            },
            {
              "internalType": "address",
              "name": "sender",
              "type": "address"
            }
          ],
          "internalType": "struct DepositQueue.Deposit",
          "name": "",
          "type": "tuple"
        }
      ],
      "stateMutability": "view",
      "type": "function"
    },
    {
      "inputs": [],
      "name": "numDeposits",
      "outputs": [
        {
          "internalType": "uint256",
          "name": "",
          "type": "uint256"
        }
      ],
      "stateMutability": "view",
      "type": "function"
    },
    {
      "inputs": [
        {
          "internalType": "bool",
          "name": "_isAutoCompoundOn",
          "type": "bool"
        }
      ],
      "name": "setAutoCompoundStrategy",
      "outputs": [],
      "stateMutability": "nonpayable",
      "type": "function"
    },
    {
      "inputs": [],
      "name": "totalErc20",
      "outputs": [
        {
          "internalType": "uint256",
          "name": "",
          "type": "uint256"
        }
      ],
      "stateMutability": "view",
      "type": "function"
    },
    {
      "inputs": [
        {
          "internalType": "uint256",
          "name": "_amount",
          "type": "uint256"
        }
      ],
      "name": "withdrawErc20",
      "outputs": [],
      "stateMutability": "nonpayable",
      "type": "function"
    },
    {
      "inputs": [
        {
          "internalType": "uint256",
          "name": "_id",
          "type": "uint256"
        }
      ],
      "name": "withdrawNft",
      "outputs": [],
      "stateMutability": "nonpayable",
      "type": "function"
    }
  ],
  "bytecode": "0x608060405234801561001057600080fd5b5060405161163138038061163183398101604081905261002f9161007f565b600280546001600160a01b039283166001600160a01b031991821617909155600380549390921692169190911790556100b2565b80516001600160a01b038116811461007a57600080fd5b919050565b6000806040838503121561009257600080fd5b61009b83610063565b91506100a960208401610063565b90509250929050565b611570806100c16000396000f3fe608060405234801561001057600080fd5b50600436106100a95760003560e01c80639c437e54116100715780639c437e541461014f5780639f9fb96814610162578063b478fc0714610182578063b7c3505f146101b9578063bbd4e8c9146101cc578063c0316aa3146101d457600080fd5b8063199402e5146100ae57806323ad6db2146100d7578063258ab15c1461011457806390babe8b14610129578063910efae81461013c575b600080fd5b6100c16100bc366004611318565b6101dc565b6040516100ce9190611331565b60405180910390f35b6101046100e53660046113bb565b6001600160a01b031660009081526006602052604090205460ff161590565b60405190151581526020016100ce565b610127610122366004611318565b61029d565b005b6101276101373660046113f9565b6103eb565b61012761014a366004611318565b6103f7565b61012761015d366004611416565b610602565b610175610170366004611318565b610707565b6040516100ce9190611446565b6101ab6101903660046113bb565b6001600160a01b031660009081526004602052604090205490565b6040519081526020016100ce565b6101276101c7366004611318565b6107d9565b6101ab6109a8565b6007546101ab565b60408051606080820183526000808352602080840182905283850183905285825260058152848220855193840186528054845260018101546001600160a01b031684830152600281018054875181850281018501895281815296979596929587019492939192909184015b8282101561028f5760008481526020908190206040805180820190915260028502909101805482526001908101546001600160a01b0316828401529083529092019101610247565b505050915250909392505050565b336000908152600460205260409020548111156103015760405162461bcd60e51b815260206004820152601a60248201527f5769746864726177616c20616d6f756e7420746f6f206269672e00000000000060448201526064015b60405180910390fd5b8060076000828254610313919061147c565b9091555050336000908152600460205260408120805483929061033790849061147c565b909155505060035460405163a9059cbb60e01b8152336004820152602481018390526001600160a01b039091169063a9059cbb906044016020604051808303816000875af115801561038d573d6000803e3d6000fd5b505050506040513d601f19601f820116820180604052508101906103b19190611493565b5060405181815233907f1b2ddd05b84795a2399545c07b572670916505841f3dca544522702c95c6dac3906020015b60405180910390a250565b6103f4816109bf565b50565b42610406600a620151806114b0565b60008381526005602052604090205461041f91906114cf565b106104655760405162461bcd60e51b81526020600482015260166024820152752a37b79032b0b9363c903a37903bb4ba34323930bb9760511b60448201526064016102f8565b60008181526005602052604081205461048790610482904261147c565b6109fa565b9050600260009054906101000a90046001600160a01b03166001600160a01b0316633d18b9126040518163ffffffff1660e01b8152600401600060405180830381600087803b1580156104d957600080fd5b505af11580156104ed573d6000803e3d6000fd5b505050506104fb8183610a22565b600254600083815260056020526040908190206001015490516323b872dd60e01b81523060048201526001600160a01b039182166024820152604481018590529116906323b872dd90606401600060405180830381600087803b15801561056157600080fd5b505af1158015610575573d6000803e3d6000fd5b5050506000838152600560209081526040918290206001015491518581526001600160a01b0390921692507f59994f7bed7ab9b9c914efb2b3467ee88e9a9b45afc792c3493d0b3583448154910160405180910390a260008281526005602052604081208181556001810180546001600160a01b0319169055906105fc60028301826112d1565b50505050565b33600090815260046020526040812080548492906106219084906114cf565b9091555061063190508233610ae2565b816007600082825461064391906114cf565b909155506106529050816109bf565b6003546040516323b872dd60e01b8152336004820152306024820152604481018490526001600160a01b03909116906323b872dd906064016020604051808303816000875af11580156106a9573d6000803e3d6000fd5b505050506040513d601f19601f820116820180604052508101906106cd9190611493565b5060405182815233907f41c2204e0b8b95e51b469b325b7c4f84dd02258c431b7728bb84f665475cd6ec9060200160405180910390a25050565b60408051808201909152600080825260208201526001546000541161072b57600080fd5b60005460015461073c9084906114cf565b1061077f5760405162461bcd60e51b8152602060048201526013602482015272496e646578206f7574206f6620626f756e647360681b60448201526064016102f8565b60008260015461078f91906114cf565b8154811061079f5761079f6114e7565b60009182526020918290206040805180820190915260029092020180548252600101546001600160a01b0316918101919091529050919050565b6107e4816103e91190565b6108305760405162461bcd60e51b815260206004820152601860248201527f43616e2774206465706f7369742074686973204b6f6e672e000000000000000060448201526064016102f8565b600081815260056020526040902042815560010180546001600160a01b0319163317905561085d81610b77565b6002546040516323b872dd60e01b8152336004820152306024820152604481018390526001600160a01b03909116906323b872dd90606401600060405180830381600087803b1580156108af57600080fd5b505af11580156108c3573d6000803e3d6000fd5b50506003546001600160a01b0316915063a9059cbb905033606460506108f2600a678ac7230489e800006114b0565b6108fc91906114b0565b61090691906114fd565b6040516001600160e01b031960e085901b1681526001600160a01b03909216600483015260248201526044016020604051808303816000875af1158015610951573d6000803e3d6000fd5b505050506040513d601f19601f820116820180604052508101906109759190611493565b5060405181815233907fc51aa48e8a485bd6477140a30bc33abe671d92f680dd8a75c516b926aa009d93906020016103e0565b6001546000805490916109ba9161147c565b905090565b3360009081526006602052604090205460ff16151581151514156103f457336000908152600660205260409020805460ff1916821517905550565b600062015180610a1283678ac7230489e800006114b0565b610a1c91906114fd565b92915050565b6000818152600560205260409020600101546001600160a01b0316331415610a5257610a4e8183610f0c565b5050565b60005b600082815260056020526040902060020154811015610ad7576000828152600560205260409020600201805482908110610a9157610a916114e7565b60009182526020909120600290910201600101546001600160a01b0316331415610ac557610ac0828483610fe3565b505050565b80610acf8161151f565b915050610a55565b50610a4e8183610f0c565b604080518082019091529182526001600160a01b03908116602083019081526000805460018101825590805292517f290decd9548b62a8d60345a988386fc84ba6bc95484008f6362f93160ef3e563600290940293840155517f290decd9548b62a8d60345a988386fc84ba6bc95484008f6362f93160ef3e56490920180546001600160a01b03191692909116919091179055565b60646050610b8e600a678ac7230489e800006114b0565b610b9891906114b0565b610ba291906114fd565b6007541015610bfe5760405162461bcd60e51b815260206004820152602260248201527f4e6f7420656e6f7567682062616e616e617320746f2066756e642061206c6f61604482015261371760f11b60648201526084016102f8565b60005b6001546000541115610ecd576000610c176110c9565b6020808201516001600160a01b0316600090815260049091526040902054909150610c4b57610c4461113a565b5050610c01565b80516020808301516001600160a01b031660009081526004909152604081205490911115610c9757506020808201516001600160a01b0316600090815260049091526040902054610c9b565b5080515b6000610ca782856114cf565b905060646050610cc0600a678ac7230489e800006114b0565b610cca91906114b0565b610cd491906114fd565b811115610dd95760008460646050610cf5600a678ac7230489e800006114b0565b610cff91906114b0565b610d0991906114fd565b610d13919061147c565b90506000610d21828561147c565b9050610d2c816111ac565b60008781526005602090815260408083208151808301835286815289840180516001600160a01b039081168387019081526002948501805460018082018355918a52888a2095519602909401948555519390920180546001600160a01b031916938316939093179092559051168352600490915281208054849290610db290849061147c565b925050819055508160076000828254610dcb919061147c565b909155505050505050505050565b60008581526005602090815260408083208151808301835286815287840180516001600160a01b039081168387019081526002948501805460018082018355918a52888a2095519602909401948555519390920180546001600160a01b0319169383169390931790925590511683526004909152812080549295508592849290610e6490849061147c565b925050819055508160076000828254610e7d919061147c565b90915550610e8b905061113a565b5060646050610ea3600a678ac7230489e800006114b0565b610ead91906114b0565b610eb791906114fd565b811415610ec5575050505050565b505050610c01565b60405162461bcd60e51b81526020600482015260146024820152732737ba1032b737bab3b4103232b837b9b4ba399760611b60448201526064016102f8565b60005b600083815260056020526040902060020154811015610ac0576000838152600560205260408120600201805483908110610f4b57610f4b6114e7565b600091825260208083206040805180820190915260029093020180548352600101546001600160a01b031690820152915060646050610f93600a678ac7230489e800006114b0565b610f9d91906114b0565b610fa791906114fd565b8251610fb49086906114b0565b610fbe91906114fd565b9050610fce8260200151826111e6565b50508080610fdb9061151f565b915050610f0f565b60005b6000848152600560205260409020600201548110156105fc576000848152600560205260408120600201805483908110611022576110226114e7565b600091825260208083206040805180820190915260029093020180548084526001909101546001600160a01b0316918301919091529092506050906110689060646114b0565b61107291906114fd565b9050838314156110a65761108f600a678ac7230489e800006114b0565b611099908661147c565b6110a390826114cf565b90505b6110b48260200151826111e6565b505080806110c19061151f565b915050610fe6565b6040805180820190915260008082526020820152600154600054116110ed57600080fd5b600060015481548110611102576111026114e7565b60009182526020918290206040805180820190915260029092020180548252600101546001600160a01b031691810191909152905090565b60408051808201909152600080825260208201526001546000541161115e57600080fd5b600060015481548110611173576111736114e7565b600091825260208220600290910201818155600190810180546001600160a01b03191690558054916111a48361151f565b919050555090565b600154600054116111bc57600080fd5b806000600154815481106111d2576111d26114e7565b600091825260209091206002909102015550565b6001600160a01b03821660009081526006602052604090205460ff161561127e5760035460405163a9059cbb60e01b81526001600160a01b038481166004830152602482018490529091169063a9059cbb906044016020604051808303816000875af115801561125a573d6000803e3d6000fd5b505050506040513d601f19601f82011682018060405250810190610ac09190611493565b6001600160a01b038216600090815260046020526040812080548392906112a69084906114cf565b909155506112b690508183610ae2565b80600760008282546112c891906114cf565b90915550505050565b50805460008255600202906000526020600020908101906103f491905b8082111561131457600081556001810180546001600160a01b03191690556002016112ee565b5090565b60006020828403121561132a57600080fd5b5035919050565b6020808252825182820152828101516001600160a01b0316604080840191909152808401516060808501528051608085018190526000939291830191849160a08701905b808410156113af5761139b828651805182526020908101516001600160a01b0316910152565b938501936001939093019290820190611375565b50979650505050505050565b6000602082840312156113cd57600080fd5b81356001600160a01b03811681146113e457600080fd5b9392505050565b80151581146103f457600080fd5b60006020828403121561140b57600080fd5b81356113e4816113eb565b6000806040838503121561142957600080fd5b82359150602083013561143b816113eb565b809150509250929050565b815181526020808301516001600160a01b03169082015260408101610a1c565b634e487b7160e01b600052601160045260246000fd5b60008282101561148e5761148e611466565b500390565b6000602082840312156114a557600080fd5b81516113e4816113eb565b60008160001904831182151516156114ca576114ca611466565b500290565b600082198211156114e2576114e2611466565b500190565b634e487b7160e01b600052603260045260246000fd5b60008261151a57634e487b7160e01b600052601260045260246000fd5b500490565b600060001982141561153357611533611466565b506001019056fea26469706673582212208d23c2e8a555d27b34bc43dc72aafcc462cf25f342ac2aedace1001ca6e1692364736f6c634300080b0033",
  "linkReferences": {},
  "deployedLinkReferences": {}
}