{
  "_format": "hh-sol-artifact-1",
  "contractName": "DepositQueue",
  "sourceName": "contracts/DepositQueue.sol",
  "abi": [
    {
      "inputs": [
        {
          "internalType": "uint256",
          "name": "_index",
          "type": "uint256"
        }
      ],
      "name": "getDeposit",
      "outputs": [
        {
          "components": [
            {
              "internalType": "uint256",
              "name": "amount",
              "type": "uint256"
            },
            {
              "internalType": "address",
              "name": "sender",
              "type": "address"
            }
          ],
          "internalType": "struct DepositQueue.Deposit",
          "name": "",
          "type": "tuple"
        }
      ],
      "stateMutability": "view",
      "type": "function"
    },
    {
      "inputs": [],
      "name": "numDeposits",
      "outputs": [
        {
          "internalType": "uint256",
          "name": "",
          "type": "uint256"
        }
      ],
      "stateMutability": "view",
      "type": "function"
    }
  ],
  "bytecode": "0x608060405234801561001057600080fd5b50610224806100206000396000f3fe608060405234801561001057600080fd5b50600436106100365760003560e01c80639f9fb9681461003b578063bbd4e8c914610077575b600080fd5b61004e61004936600461017a565b61008d565b60408051825181526020928301516001600160a01b031692810192909252015b60405180910390f35b61007f610163565b60405190815260200161006e565b6040805180820190915260008082526020820152600154600054116100b157600080fd5b6000546001546100c29084906101a9565b106101095760405162461bcd60e51b8152602060048201526013602482015272496e646578206f7574206f6620626f756e647360681b604482015260640160405180910390fd5b60008260015461011991906101a9565b81548110610129576101296101c1565b60009182526020918290206040805180820190915260029092020180548252600101546001600160a01b0316918101919091529050919050565b600154600080549091610175916101d7565b905090565b60006020828403121561018c57600080fd5b5035919050565b634e487b7160e01b600052601160045260246000fd5b600082198211156101bc576101bc610193565b500190565b634e487b7160e01b600052603260045260246000fd5b6000828210156101e9576101e9610193565b50039056fea2646970667358221220366f00e2250a91d4249cd9ff51715debda22e27427b6fddc7d5117e908c0ae4064736f6c634300080b0033",
  "linkReferences": {},
  "deployedLinkReferences": {}
}